:100000000C9475000C949D000C949D000C949D0024
:100010000C949D000C949D000C949D000C94040382
:100020000C949D000C949D000C949D000C949D00DC
:100030000C949D000C949D000C949D000C949D00CC
:100040000C9487020C949D000C94DF010C94B90170
:100050000C949D000C949D000C949D000C949D00AC
:100060000C949D000C949D00B60C9B0CDC0A220B9A
:10007000830A0F0C850A39097A0B4B0C5C08430A7A
:100080009B0C9B0CF508BC0BAC089B0C7B0900007F
:1000900000002300260029000000000800020100E3
:1000A0000003040700000000000000000000000042
:1000B000250028002B0000000000240027002A0053
:1000C00004040404040404040202020202020303FE
:1000D0000303030301020408102040800102040806
:1000E0001020010204081020F31311241FBECFEFCB
:1000F000D8E0DEBFCDBF11E0A0E0B1E0E0EDF3E37A
:1001000002C005900D92AA35B107D9F723E0AAE500
:10011000B1E001C01D92AE33B207E1F710E0C5E7D0
:10012000D0E004C02197FE010E94AF14C437D1076C
:10013000C9F70E9421070C94E6190C940000FC01F9
:10014000918D828D981761F0828DDF01A80FB11D0E
:100150005D968C91928D9F5F9F73928F90E0089532
:100160008FEF9FEF0895FC01918D828D981731F0EC
:10017000828DE80FF11D858D90E008958FEF9FEF40
:100180000895FC01918D228D892F90E0805C9F4F16
:10019000821B91098F739927089582E891E00E944C
:1001A000C10021E0892B09F420E0822F0895FC0191
:1001B000848DDF01A80FB11DA35ABF4F2C91848DF0
:1001C00090E001968F739927848FA689B7892C9325
:1001D000A089B1898C9180648C93938D848D9813C0
:1001E00006C00288F389E02D80818F7D8083089589
:1001F000EF92FF920F931F93CF93DF93EC0181E077
:10020000888F9B8D8C8D981305C0E889F989808132
:1002100085FD24C0F62E0B8D10E00F5F1F4F0F736E
:100220001127E02E8C8DE8120CC00FB607FCFACF18
:10023000E889F989808185FFF5CFCE010E94D7003A
:10024000F1CF8B8DFE01E80FF11DE35AFF4FF082D5
:100250000B8FEA89FB898081806207C0EE89FF8964
:100260006083E889F98980818064808381E090E0FF
:10027000DF91CF911F910F91FF90EF900895CF9351
:10028000DF93EC01888D8823C9F0EA89FB8980819E
:1002900085FD05C0A889B9898C9186FD0FC00FB670
:1002A00007FCF5CF808185FFF2CFA889B9898C91B1
:1002B00085FFEDCFCE010E94D700E7CFDF91CF9130
:1002C000089580E090E0892B29F00E94CD008111F3
:1002D0000C9400000895833081F028F4813099F067
:1002E0008230A1F008958730A9F08830B9F08430C9
:1002F000D1F4809180008F7D03C0809180008F7742
:1003000080938000089584B58F7702C084B58F7D77
:1003100084BD08958091B0008F7703C08091B000B4
:100320008F7D8093B00008953FB7F89480916D0160
:1003300090916E01A0916F01B091700126B5A89BBC
:1003400005C02F3F19F00196A11DB11D3FBFBA2F67
:10035000A92F982F8827820F911DA11DB11DBC01C7
:10036000CD0142E0660F771F881F991F4A95D1F78C
:1003700008951F920F920FB60F9211242F933F935F
:100380004F935F936F937F938F939F93AF93BF939D
:10039000EF93FF9382E891E00E94D700FF91EF91E5
:1003A000BF91AF919F918F917F916F915F914F918D
:1003B0003F912F910F900FBE0F901F9018951F9295
:1003C0000F920FB60F9211242F938F939F93EF9359
:1003D000FF93E0919201F09193018081E091980167
:1003E000F091990182FD12C0908180919B018F5FF5
:1003F0008F7320919C01821751F0E0919B01F0E0F6
:10040000EE57FE4F958F80939B0101C08081FF9135
:10041000EF919F918F912F910F900FBE0F901F9092
:1004200018951F93CF93DF93282F30E0F901E856FA
:10043000FF4F8491F901EC52FF4FD491F901E05440
:10044000FF4FC491CC23C9F0162F81110E946B017C
:10045000EC2FF0E0EE0FFF1FE455FF4FA591B49194
:100460008FB7F894111105C09C91ED2FE095E92309
:1004700002C0EC91ED2BEC938FBFDF91CF911F91D8
:1004800008958F929F92AF92BF92CF92DF92EF9298
:10049000FF926B017C010E9494014B015C01C1142D
:1004A000D104E104F104F1F00E949401DC01CB01DC
:1004B00088199909AA09BB09883E9340A105B1058D
:1004C00070F321E0C21AD108E108F10888EE880E25
:1004D00083E0981EA11CB11CC114D104E104F104F5
:1004E00019F7DDCFFF90EF90DF90CF90BF90AF90E6
:1004F0009F908F9008952FB7F89460916901709143
:100500006A0180916B0190916C012FBF08951F9239
:100510000F920FB60F9211242F933F938F939F93B7
:10052000AF93BF938091690190916A01A0916B0193
:10053000B0916C013091680123E0230F2D3720F436
:100540000196A11DB11D05C026E8230F0296A11D2D
:10055000B11D209368018093690190936A01A09373
:100560006B01B0936C0180916D0190916E01A0912F
:100570006F01B09170010196A11DB11D80936D01B5
:1005800090936E01A0936F01B0937001BF91AF91F2
:100590009F918F913F912F910F900FBE0F901F90C1
:1005A00018958F929F92AF92BF92CF92DF92EF9267
:1005B000FF926B017C010E9494014B015C0184E07D
:1005C000C81AD108E108F108C80CD91CEA1CFB1CA8
:1005D000C814D904EA04FB0438F40E949401861676
:1005E0009706A806B906C8F30E9494016C157D050C
:1005F0008E059F05C8F3FF90EF90DF90CF90BF90DE
:10060000AF909F908F9008951F920F920FB60F9208
:1006100011242F933F934F935F936F937F938F9307
:100620009F93AF93BF93CF93DF93EF93FF9320916B
:10063000680230E0F901E856FF4F8491F901EC526D
:10064000FF4FD491F901E054FF4FC491CC23A1F0A6
:1006500081110E946B01EC2FF0E0EE0FFF1FE257BB
:10066000FF4FA591B491EC91ED2331E020E009F426
:1006700030E0832F922F02C080E090E020916C0246
:1006800030916D022F5F3F4F30936D0220936C02CB
:1006900020916B02253618F026E020936702209106
:1006A00067022430D9F128F4223069F02330D9F0E0
:1006B00060C0253009F453C0263009F05AC021E04B
:1006C0002093380353C0009709F053C020916C0267
:1006D00030916D022436310508F443C0109238037E
:1006E00010926B021DC08130910509F042C0E0916B
:1006F0006B0221E02E0F20936B02F0E020916C0240
:1007000030916D02EE0FFF1FE959FD4F30872783AF
:1007100010926D0210926C0224E029C00097B9F487
:10072000E0916B0221E02E0F20936B02F0E020910C
:100730006C0230916D02EE0FFF1FE959FD4F3087BB
:10074000278310926D0210926C0223E010C020915A
:100750006C0230916D022536310558F007C00097C4
:1007600041F410926D0210926C0203C025E02093B8
:10077000670220916A022223B9F0892B51F48091FB
:100780006902882321F08091690261E009C02D9AF5
:100790000BC080916902882331F08091690260E08A
:1007A0000E94110201C02D98FF91EF91DF91CF912E
:1007B000BF91AF919F918F917F916F915F914F9179
:1007C0003F912F910F900FBE0F901F901895CF92D1
:1007D000DF92EF92FF92CF93DF93EC01072E000C94
:1007E000880B990B0E9446186B017C0120E030E0D9
:1007F00040E45FE30E94A51820E030E048E452E4C2
:100800000E9459150E94CB15C617D707D4F020E0D7
:1008100030E040EA5FE3C701B6010E94A51820E07E
:1008200030E048E452E40E94591520E030E040E80E
:100830005FE30E94ED140E94CB1521E06C177D0749
:100840000CF420E0822F90E0DF91CF91FF90EF90A9
:10085000DF90CF9008958F929F92AF92BF92CF92E8
:10086000DF92EF92FF920F931F93CF93DF93CDB759
:10087000DEB7A1970FB6F894DEBF0FBECDBF8C01D7
:10088000CB01BA015901F801118210821382128240
:10089000158214822AE0AE014F5F5F4F7A010E94F9
:1008A0000D18F70101900020E9F73197AF014E19BB
:1008B0005F09B701C8010E94EB06F80184819581A8
:1008C0008A159B0508F046C01A8219821C821B8279
:1008D0001E821D8241E050E068E571E0C7010E9480
:1008E000EB06F8018481958180809180CD80DE8047
:1008F0008114910459F1009799F0C80ED91EB601E0
:10090000C7010E94B206882309F129813A818D81AD
:100910009E81B401820F931F0E940618DE82CD8251
:100920000E151F0571F069817A816115710531F02D
:100930004D815E81C8010E94EB0603C0C8010E9480
:10094000D90689819A810E949616B7CFC7010E9465
:10095000D906E6CFC801A1960FB6F894DEBF0FBE48
:10096000CDBFDF91CF911F910F91FF90EF90DF905E
:10097000CF90BF90AF909F908F900895CF92DF92CD
:10098000EF92FF920F931F93CF93DF936C017A0145
:100990008B01C0E0D0E0CE15DF0589F0D8016D9164
:1009A0008D01D601ED91FC910190F081E02DC60101
:1009B0000995892B11F47E0102C02196ECCFC70165
:1009C000DF91CF911F910F91FF90EF90DF90CF902B
:1009D00008950F931F930E947B0260938A01709386
:1009E0008B0180938C0190938D01E0918201F091B5
:1009F00083010084F185E02D82E891E0099597FF5D
:100A00001FC00E947B0200918A0110918B012091EE
:100A10008C0130918D01DC01CB01801B910BA20B6D
:100A2000B30B0091860110918701209188013091CC
:100A3000890180179107A207B307B8F28FEF9FEFE4
:100A40001F910F9108950E94F817E2E8F1E0A08944
:100A5000B18982E08C93A485B5851C92A685B78563
:100A60008FEC8C93108EA489B58986E08C93A28933
:100A7000B3898C9180618C93A289B3898C918860B1
:100A80008C93A289B3898C9180688C930288F389B6
:100A9000E02D80818F7D80830895FC014481558104
:100AA0006081718182E891E00C94BE04E091820142
:100AB000F09183010190F081E02D60E482E891E003
:100AC00009948F929F92AF92BF92CF92DF92EF9252
:100AD000FF920F931F93CF93DF93FC01C081D181CD
:100AE00020917E0130917F01C217D3070CF04BC0DB
:100AF0009E01220F331FE0917C01F0917D01E20FF6
:100B0000F31F80809180C170DD27F1E0CF2720970F
:100B100019F404E610E002C00CE91FEF7A015B0152
:100B20006C01040F151FB801C4010E94E703892B53
:100B300099F40E0D1F1DB801C4010E94E703892B13
:100B400071F4B8016E0D7F1DC4010E94E703892B6B
:100B5000E9F023E030E005C021E030E002C022E00F
:100B600030E0F501808191810196821793073CF076
:100B7000F50111821082F6018081918101969183A5
:100B80008083CE0105C081E090E002C08FEF9FEF2F
:100B9000DF91CF911F910F91FF90EF90DF90CF9059
:100BA000BF90AF909F908F9008952091B0002F7DBF
:100BB0002093B000009751F0BC0180E090E06530D8
:100BC00071058105910510F00C94D10208952091D2
:100BD000B00020622093B000009751F0BC0180E08B
:100BE00090E0653071058105910510F00C94D102FB
:100BF0000895CF93DF93EC0110927000E7EDF0E0E1
:100C00008491E3ECF0E04491442399F050E0440FE8
:100C1000551FFA01EA54FF4FA591B491FA01E4552A
:100C2000FF4F459154919FB7F894EC91E82BEC93CA
:100C30009FBF60E083E00E9411029E01DD0F440B24
:100C4000550B60E47FE180E090E00E94901481E029
:100C50008093B00089E08093B1002093B3008BEAC9
:100C6000289F212D112426952093B400DF91CF9148
:100C70000895FF920F931F93CF93DF9300D000D07E
:100C8000CDB7DEB70E94E904FC0197FD11C08D329B
:100C9000910591F0C0970A9778F0E0918201F09168
:100CA00083010680F781E02D82E891E00995EACF83
:100CB00060E070E0CB014CC020E030E0A901F12CF5
:100CC000E130F105F1F0ED32F105C9F0CF01C09747
:100CD0000A97B8F4AAE0B0E00E9495198F01FF0FBF
:100CE000220B330BDC01CB01800F911FA21FB31F1E
:100CF0009C01AD01205331094109510902C0FF2473
:100D0000F394E0918201F09183010680F781E02D58
:100D100082E891E029833A834B835C8309950E94A2
:100D2000E904FC01C09729813A814B815C810A97D3
:100D300038F2E130F10521F2FF2041F066277727F4
:100D4000CB01621B730B840B950B02C0CA01B90166
:100D50000F900F900F900F90DF91CF911F910F91F7
:100D6000FF9008950F931F93CF93DF93EC01888139
:100D70009981009729F02A813B812617370788F44B
:100D80008B016F5F7F4F0E942E17009761F0998350
:100D900088831B830A832C813D81232B11F4FC0162
:100DA000108281E001C080E0DF91CF911F910F910F
:100DB0000895CF93DF93EC0188819981009711F01A
:100DC0000E949616198218821D821C821B821A822A
:100DD000DF91CF910895EF92FF920F931F93CF93DE
:100DE000DF93EC017B018A01BA010E94B2068111F6
:100DF00004C0CE010E94D90607C01D830C83B70131
:100E0000888199810E940618CE01DF91CF911F91B0
:100E10000F91FF90EF9008956115710579F0FB0136
:100E200001900020E9F73197AF01461B570BDC0119
:100E3000ED91FC910280F381E02D099480E090E037
:100E40000895CF93DF93CDB7DEB72E970FB6F89402
:100E5000DEBF0FBECDBF789484B5826084BD84B5FB
:100E6000816084BD85B5826085BD85B5816085BDA5
:100E700080916E00816080936E001092810080915D
:100E800081008260809381008091810081608093E5
:100E90008100809180008160809380008091B1000A
:100EA00084608093B1008091B00081608093B00035
:100EB00080917A00846080937A0080917A008260C9
:100EC00080937A0080917A00816080937A0080918B
:100ED0007A00806880937A001092C10010926302B9
:100EE0001092640210926502109266021092210222
:100EF00010922202109223021092240260ED77E0F9
:100F000080E090E00E94410282E891E090936202CA
:100F1000809361020E9425050E947B02609321025A
:100F200070932202809323029093240266E171E081
:100F300080916102909162020E940C076AE070E069
:100F400080E090E00E94410281E0809335020E949F
:100F50002505F89482E08093B0008093B10094E678
:100F60009093B3001092B2008093700078948093B5
:100F7000670210926B028091680290E0FC01EC52D3
:100F8000FF4F2491FC01E054FF4F84918823C9F066
:100F900090E0880F991FFC01EA54FF4FA591B4918E
:100FA000FC01E455FF4F459154919FB7F8948C9103
:100FB000E22FE0958E238C93DA018C91E823EC9359
:100FC0009FBF82E891E00E94C100892B09F4CEC442
:100FD00082E891E00E949F008F7D833591F08334F9
:100FE00009F0B0C4109267016EE170E080E090E01B
:100FF0000E94410268E271E082E891E00E940C07E1
:10100000B5C40E9439066B017C0182E891E00E9420
:101010009F008034910509F0A9C40E9439062B0174
:101020003C0182E891E00E949F008034910509F024
:101030009DC40E94390669877A878B879C875A826C
:10104000498280E794E90E94F905FE0131965F012B
:1010500000E010E000FF06C0D5018D919C910E9438
:10106000D50505C0F501808191810E94E7050F5FDC
:101070001F4FF2E0AF0EB11C0032110559F78091FD
:10108000B0008F7D8093B00082E891E00E949F00C5
:101090000E9439064B015C0129853A85C901330F4D
:1010A000AA0BBB0BFC013196E331F10508F043C4F8
:1010B000EC5CFF4F0C94AF1486E290E00E94F905BF
:1010C00080E692E20E94E70584E991E10E94D5055D
:1010D0000AE110E0C12CD12CE12C42E0F42E84EF87
:1010E00091E00E94E705D701C601807C9E7EA77231
:1010F000B270892B8A2B8B2B19F088E592E002C005
:1011000084EA96E00E94D505F694E794D794C794B4
:101110000150110921F7440C551C0FE010E084EF39
:1011200091E00E94E70557FE03C088E592E002C007
:1011300084EA96E00E94D505440C551C0150110923
:1011400071F784EF91E00E94E70584EA96E00E943F
:10115000D50584EF91E041C086E290E00E94F90558
:101160008CE291E00E94E7058EEE92E00E94D505A8
:1011700031E0C31AD10881E090E0A0E0B0E004C003
:10118000880F991FAA1FBB1FCA94D2F76C017D015B
:10119000C114D104E104F104F1F0D701C6018421A6
:1011A0009521A621B721892B8A2B8B2B39F08CE234
:1011B00091E00E94E70588E097E006C08CE291E0AC
:1011C0000E94E7058EEE92E00E94D505F694E79422
:1011D000D794C794DDCF8CE291E00E94E70580911F
:1011E000B0008F7D8093B000C1C388E390E00E947F
:1011F000F90580E991E00E94E70584ED97E10E94FE
:10120000D50591E0C91AD10821E030E040E050E076
:1012100004C0220F331F441F551FCA94D2F769011F
:101220007A01C114D104E104F104F1F0D701C6013F
:1012300084219521A621B721892B8A2B8B2B39F06C
:1012400080E991E00E94E70584EA96E006C080E923
:1012500091E00E94E70580EF9AE00E94D505F694A0
:10126000E794D794C794DDCF80E991E00E94E70529
:101270007DC386E290E00E94F90580E49FE10E9430
:10128000E70580EA9FE00E94D50531E0C31AD10846
:1012900081E090E0A0E0B0E004C0880F991FAA1F91
:1012A000BB1FCA94D2F76C017D01C114D104E104C3
:1012B000F104F1F0D701C60184219521A621B721BF
:1012C000892B8A2B8B2B39F088E592E00E94E70569
:1012D00080E496E006C088E592E00E94E70586E299
:1012E00092E00E94D505F694E794D794C794DDCF99
:1012F00088E592E072CF86E290E00E94F905509274
:101300005B0140925A0181E080935C0110925E0182
:1013100010925D011092600110925F0120E130E0B7
:101320008EE19FE040E050E860E070E066247724C2
:101330006A017B01C420D520E620F720CD28CE28E5
:10134000CF2819F0875D9D4F02C0895F9E4F76952B
:101350006795579547952150310951F78E5F9B4FFF
:10136000909362018093610102E81CE3F0E1EF2EAB
:10137000F12CCC24C394D12C8EE990E00E94E70597
:1013800080915D0190915E01009709F44FC0813119
:101390009105A4F4D701A81BB90B960102C0220F36
:1013A000331FAA95E2F780915A0190915B01822345
:1013B0009323892BC1F587E091E03AC080915C01CD
:1013C0008823A1F180915F019091600182309105A5
:1013D00048F48091610190916201F801E81BF90BDA
:1013E000CF0126C00297029708F580915B01829594
:1013F0008F708D871E862D853E85237033272C5F49
:101400003F4F40E05DE7249FC001259F900D349F32
:10141000900D11248E5F9B4F2091610130916201EC
:10142000821B930B05C089E292E002C082E094E047
:101430000E94D50580915D0190915E010196909387
:101440005E0180935D0142976CF080915F01909105
:10145000600101969093600180935F0110925E019C
:1014600010925D0180915F0190916001181619063C
:101470000CF082CF20915C01222309F477C20597FA
:101480000CF47ACF73C286E290E00E94F90580E402
:101490009FE10E94E70580EA9FE00E94D50588E56C
:1014A00092E00E94E70551E0C51AD10881E090E082
:1014B000A0E0B0E004C0880F991FAA1FBB1FCA9408
:1014C000D2F76C017D01C114D104E104F10409F4E7
:1014D00086CED701C60184219521A621B721892B6B
:1014E0008A2B8B2B19F080E496E002C086E292E012
:1014F0000E94D50588E592E00E94E705F694E794FE
:10150000D794C794E0CFA60118C283E290E00E946E
:10151000F9058EEA9DE00E94E70586ED96E00E94BF
:10152000D50500E110E0C12C70E8D72EE12CF12C9C
:10153000AA24BB2486EF91E00E94E705D701C601EB
:1015400088219921AA21BB21892B8A2B8B2B19F069
:101550008CED94E002C080E991E00E94D505F694FC
:10156000E794D794C7940150110921F700E210E0E5
:10157000C12CD12CE12C50E8F52E86EF91E00E9491
:10158000E705D701C60184219521A621B721892B22
:101590008A2B8B2B19F08CED94E002C080E991E04E
:1015A0000E94D505F694E794D794C7940150110989
:1015B00021F786EF91E011CE84E290E00E94F905D8
:1015C00089E793E00E94E70589E793E00E94D5054B
:1015D00089E793E00E94E70591E0C91AD10821E06C
:1015E00030E040E050E004C0220F331F441F551F7D
:1015F000CA94D2F769017A01C114D104E104F1045B
:1016000009F4EDCDD701C60184219521A621B7218A
:10161000892B8A2B8B2B49F089E793E00E94D50513
:1016200089E793E00E94E70508C089E793E00E94FC
:10163000E70589E793E00E94D505F694E794D794EF
:10164000C794DACF84E290E00E94F9058AE69AE036
:101650000E94E70589E793E00E94D5058CEB91E0B5
:101660000E94E7058CEB91E00E94D50531E0C31A9A
:10167000D108812C912C5401839404C0880C991CAE
:10168000AA1CBB1CCA94D2F7C12CD12C7601C394DE
:1016900081149104A104B10409F4A1CD44E0C4165D
:1016A000D104E104F10419F00CEB11E002C008E7E9
:1016B00013E0D501C40184219521A621B721892BEE
:1016C0008A2B8B2B39F0C8010E94E705C8010E94C4
:1016D000D50506C0C8010E94D505C8010E94E705CE
:1016E0005FEFC51AD50AE50AF50AB694A794979450
:1016F0008794CECF86E290E00E94F90588E893E1D6
:101700000E94E70588E893E10E94D50581E0C81AA8
:10171000D10821E030E040E050E004C0220F331F48
:10172000441F551FCA94D2F769017A01C114D1042C
:10173000E104F104F1F0D701C60184219521A6212D
:10174000B721892B8A2B8B2B39F080E392E00E9402
:10175000E70580E496E006C080E392E00E94E7059A
:1017600080E392E00E94D505F694E794D794C7945D
:10177000DDCF80E392E031CD440C551C440C551C68
:10178000689441F8982C8824990C990C8428952801
:10179000A12CB12C86E290E00E94F90513E0E12E25
:1017A000F12C0FE010E0412CE0E45E2E612C712C56
:1017B000D301C20188219921AA21BB21892B8A2B1F
:1017C0008B2B39F085EF90E00E94E7058DE097E0E4
:1017D00006C085EF90E00E94E7058BE193E00E9450
:1017E000D50576946794579447940150110901F7F1
:1017F00085EF90E00E94E7058BE193E00E94D5051C
:1018000068E270E080E090E00E944102809433E062
:10181000932641E0E41AF10809F0C3CFA7C088E29B
:1018200090E00E94F90580E699E00E94E70588E5CE
:1018300092E00E94D50551E0C51AD10881E090E000
:10184000A0E0B0E004C0880F991FAA1FBB1FCA9474
:10185000D2F76C017D01C114D104E104F10409F453
:1018600085C0D701C60184219521A621B721892BE6
:101870008A2B8B2B19F080EB94E002C088E592E074
:101880000E94E70588E592E00E94D505F694E7946A
:10189000D794C794E0CF86E290E00E94F9058EEEDF
:1018A00092E00E94E7058EEE92E00E94D50582E26A
:1018B0009BE00E94E70582E29BE00E94D50591E053
:1018C000C91AD10821E030E040E050E004C0220F06
:1018D000331F441F551FCA94D2F769017A01C114FE
:1018E000D104E104F104F1F0D701C601842195216E
:1018F000A621B721892B8A2B8B2B39F08EEE92E013
:101900000E94E70586E698E006C08EEE92E00E940F
:10191000E7058EEE92E00E94D505F694E794D79401
:10192000C794DDCF8EEE92E00E94E7058EEE92E046
:101930000E94D5051BC040E250E0C301B2010E94E5
:10194000371414C0823591F481E0809367010E94BE
:101950007B026093630170936401809365019093AF
:10196000660182E08093670210926B02109167011A
:10197000112309F491C28EE692E090937D01809349
:101980007C0180916B0290E090937F0180937E01B7
:101990008091380390E09093810180938001809141
:1019A0006702853009F078C28091700290917102CF
:1019B000885891098D35910588F480916B028430A7
:1019C00041F480917202909173028097479708F4D6
:1019D00099C280916B02843408F07BC280916B02C3
:1019E0008A3108F452C080916E0290916F02843F58
:1019F000914080F410927B0110927A018FEF9FEF5B
:101A0000DC018093760190937701A0937801B093E5
:101A1000790159C0809170029091710285974B971E
:101A2000A0F5E4E7F2E082E090E0C12CD12C760151
:101A3000AC014F5F5F4F20916B0230E042175307BC
:101A40005CF4DF0112972D913C912750310927302A
:101A5000310508F49EC2CA01019795958795909328
:101A60007B0180937A010C972CF410927B011092E9
:101A70007A010BC0C0927601D0927701E092780192
:101A8000F092790184E090E09AC380916B028A31F0
:101A900008F44CC080916E0290916F0280329340A6
:101AA00008F4A8CF8091700290917102C697869732
:101AB00008F48CC23BC0C0927601D0927701E092CC
:101AC0007801F09279018BE090E079C32081318137
:101AD000255231092B31310508F088C2CC0CDD1CB0
:101AE000EE1CFF1C6894C0F802963496AC014F5F60
:101AF0005F4F20916B0230E04217530754F4DF012F
:101B000012972D913C912C5031092B303105F0F278
:101B1000CA0101979595879590937B0180937A01EF
:101B20000C974CF610927B0110927A0180916B0217
:101B3000823208F44DC08091700290917102069734
:101B4000079708F045C0E4E7F2E082E090E040E06B
:101B500050E0BA017C01AFEFEA1AFA0A20916B0259
:101B600030E0E216F306DCF4DF0112972D913C9190
:101B700011972E5131092731310508F044C2440F25
:101B8000551F661F771F4160208131813496235095
:101B900031092530310510F40296DCCFC7010197D9
:101BA0009595879590937B0180937A0140972CF4CB
:101BB00010927B0110927A010BC0409376015093F2
:101BC000770160937801709379018CE090E0F7C21F
:101BD00018861F8281E090E09A83898380916B024E
:101BE0008D3008F471C049E753E0BE01695F7F4F53
:101BF000CE0101960E946105892B09F065C049E775
:101C000053E0BE01695F7F4FCE0101960E946105DE
:101C1000019709F059C049E753E0BE01695F7F4F62
:101C2000CE0101960E946105892B09F04DC0812CDF
:101C3000912C5401E12CF12C80916B0290E02981D0
:101C40003A812817390764F549E753E0BE01695F17
:101C50007F4FCE0101960E9461056C0149E753E078
:101C6000BE01695F7F4FCE0101960E946105B1E020
:101C7000CB16D10449F4892B39F5880C991CAA1C80
:101C8000BB1C689480F808C0CD28F1F40197E1F4FA
:101C9000880C991CAA1CBB1CEFEFEE1AFE0ACCCFD5
:101CA000F0927B01E0927A01809276019092770126
:101CB000A0927801B092790181E090E09093730155
:101CC00080937201111185C018861F8281E090E017
:101CD0009A83898380917E0190917F01181619065D
:101CE0000CF058C0E0917C01F0917D0182E090E021
:101CF0009A8389838281938189974E9708F04AC09D
:101D000083E090E09A838983848195810B970A9779
:101D100008F040C04CEB51E0BE01695F7F4FCE013F
:101D200001960E946105892BA9F54CEB51E0BE019B
:101D3000695F7F4FCE0101960E946105019751F5C1
:101D4000412C512C3201E12CF12C29813A818091D6
:101D50007E0190917F01281739073CF54CEB51E04B
:101D6000BE01695F7F4FCE0101960E9461056C0143
:101D7000F3E0EF16F10409F053C14CEB51E0BE0162
:101D8000695F7F4FCE0101960E946105C816D90692
:101D900009F446C1E0917C01F0917D01828193813B
:101DA000C697869708F474C121C2F0927B01E09235
:101DB0007A01409276015092770160927801709298
:101DC000790182E090E09093730180937201112376
:101DD00009F340917A0150917B01052E000C660BAE
:101DE000770B23E030E0CE0101960E942B04CE0158
:101DF00001960E944D0589819A810E9496160E9443
:101E0000560540917601509177016091780170916B
:101E100079012AE030E0CE0101960E942B04CE0128
:101E200001960E944D0589819A810E9496160E9412
:101E300056054091720150917301052E000C660BFE
:101E4000770B22E030E0CE0101960E942B04CE01F8
:101E500001960E944D0589819A810E9496160E94E2
:101E60005605409174015091750160E070E025E0E5
:101E700030E0CE0101960E942B04CE0101960E9413
:101E80004D0589819A810E9496161092670182E021
:101E90008093670210926B02809167018823B1F0F2
:101EA0000E947B0200916301109164012091650101
:101EB00030916601DC01CB01801B910BA20BB30BAF
:101EC00081369A4EA105B10508F07EC10E946101DC
:101ED00078C88091720290917302825491098E9712
:101EE00008F07CCD80E090E040E050E0BA01FC01D9
:101EF000EC58FD4F208131812950310929303105BD
:101F0000C8F06CCD80917402909175020997099781
:101F100008F05FCD10927B0110927A018FEF9FEF56
:101F2000DC018093760190937701A0937801B093C0
:101F3000790159C1FC01EA58FD4F208131812751B7
:101F4000310922313105C0F4440F551F661F771F38
:101F5000416004968038910551F680E290E09093BC
:101F60007B0180937A0140937601509377016093CF
:101F700078017093790137C1208131812650310970
:101F80002730310508F02ACD440F551F661F771FF3
:101F9000E0CF20813181235131092F30310548F4C0
:101FA000CC0CDD1CEE1CFF1C6894C0F80296349625
:101FB0003FCD208131812A5031092930310508F087
:101FC00064CDCC0CDD1CEE1CFF1CF0CF80917202A6
:101FD00090917302C697869708F0A8CDE6E7F2E0E5
:101FE00083E090E0C12CD12C760180CD208131811D
:101FF0002C5031092A30310508F098CDCC0CDD1C6D
:10200000EE1CFF1C71CD2D913C912C5031092B30D1
:10201000310508F0DDCD440F551F661F771FB4CD85
:102020004CEB51E0BE01695F7F4FCE0101960E94EB
:1020300061055C0123E0E216F10469F44CEB51E028
:10204000BE01695F7F4FCE0101960E946105A8160F
:10205000B90609F09FCEC114D10459F4AA94AB2853
:1020600009F098CE440C551C661C771C689440F807
:102070000BC0CA94CD2809F08DCEAB2809F08ACECA
:10208000440C551C661C771C5FEFE51AF50A5DCE03
:10209000848195814B97459708F0A8C0DF0116967B
:1020A0007F0126ECE20EF11C20E030E040E050E041
:1020B00060E070E080E090E00D911C911197095074
:1020C00011090830110508F091C012960D911C916C
:1020D0001397015111090D30110568F112960D91F8
:1020E0001C911397045011090530110508F07EC0AA
:1020F00001E00E94B5141496AE15BF05E9F62093D1
:10210000760130937701409378015093790100E292
:102110000E94D014209374013093750185E090E003
:10212000909373018093720180E390E090937B0120
:1021300080937A014ECE01E00E94B5142160DBCF7E
:10214000A80142505109DA014D915C914950510961
:102150004830510508F0F8C0BC016F5F7F4FD801CF
:102160004D915C911197475051094730510508F046
:10217000E9C2220F331F216002960C5F1F4F40916E
:102180006B0250E04450510984179507CCF2019737
:102190009595879590937B0180937A018A970CF4AB
:1021A000D3C0C901330FAA0BBB0B80937601909368
:1021B0007701A0937801B093790189E090E0909342
:1021C00073018093720105CE60E471E082E891E0D2
:1021D0000E940C0765E271E082E891E00E940C0722
:1021E0001092670173CE83E090E0E9CF80916B029B
:1021F000893370F1828193818957910983359105E3
:1022000008F441C125C0D90112966D917C911397B4
:10221000665171096131710508F061C1D701C601CC
:10222000880F991FAA1FBB1F6C017D016894C0F81D
:102230004E5F5F4F2C5F3F4F4B33510509F432C166
:10224000D9016D917C916A50710969307105D8F29C
:1022500080916B02823231F4828193810A970997CF
:1022600008F44DC182819381895791098335910585
:10227000D0F480916B028132B0F084819581CA974D
:10228000899788F49F012A5F3F4FC12CD12C76019A
:1022900043E050E0D9016D917C916A507109693039
:1022A000710508F44BC1828193818C549109C597C3
:1022B00078F480916B02843031F484819581809729
:1022C000479708F49BC180916B02843408F07DC16C
:1022D00080916B02863460F1828193810C970B9719
:1022E00008F4D9C125C0D90112966D917C9113973C
:1022F0006E5171096731710508F005C2D701C60139
:10230000880F991FAA1FBB1F6C017D016894C0F83C
:102310004E5F5F4F2C5F3F4F4534510509F4D6C1E6
:10232000D9016D917C916C5071096B307105D8F2B7
:1023300080916B02883540F08281938185589109A4
:102340008B35910508F4EFC180916B028032E1F486
:102350008281938106970697B8F4848195810997C5
:10236000099790F49F012A5F3F4FBF01625C7F4F46
:10237000C12CD12C7601D9014D915C914650510967
:102380004630510508F4EAC120917E0130917F0169
:102390003A872987263031050CF479CD1F0136E0C4
:1023A000230E311CB5ECCB2EBDE9DB2EBCE1EB2EB0
:1023B000B1E8FB2E03E010E0D1016D917C91F101B9
:1023C0003497A080B18080E090E00E9444182B01F7
:1023D0003C01B50180E090E00E9444184B015C0193
:1023E0002DEC3CEC4CE45FE30E94A5189B01AC0192
:1023F000C301B2010E943F1887FD17C02DEC3CECD1
:102400004CE45FE3C301B2010E94A5189B01AC013B
:10241000C501B4010E943F18E82F880FFF0BEE277B
:10242000FF0FEE1FFF27319602C0E0E0F0E0A701AA
:10243000960163E971E080E091E00E9463196F0109
:10244000FF0FEE08FF08C626D726E826F9260F5FFD
:102450001F4FB2E02B0E311CE985FA850E171F07BE
:1024600009F0AACFC0927601D0927701E09278016C
:10247000F092790180E290E090937B0180937A0161
:102480008FEF9FEF9CCE84819581CA97899708F042
:10249000DFCE9F012A5F3F4FC12CD12C760143E054
:1024A00050E0CECE9F012A583F4FD9012D913C914B
:1024B0002A5031092930310508F0CACE2CE130E02C
:1024C00030937B0120937A01C0927601D0927701FC
:1024D000E0927801F09279018AE090E070CED90123
:1024E00012966D917C911397665071096730710552
:1024F00008F0AECECC0CDD1CEE1CFF1C99CE20915A
:102500006B02CF01820F911D820F911DDC0112978A
:102510008D919C910A97099708F0A4CE10927B01A7
:1025200010927A018FEF9FEFDC01809376019093F8
:102530007701A0937801B09379014FC1D901129628
:102540006D917C911397665171096131710568F540
:10255000D701C601880F991FAA1FBB1F6C017D01FF
:102560006894C0F84E5F5F4F2C5F3F4F4332510578
:1025700009F090CE9F012A5B3F4FD9012D913C91EC
:102580002A5031092930310508F08DCE20E130E0A4
:1025900030937B0120937A01C0927601D09277012B
:1025A000E0927801F092790118C1D90112966D91EB
:1025B0007C911397665071096730710508F073CEEE
:1025C000CC0CDD1CEE1CFF1CCDCF84819581895481
:1025D0009109C39708F07CCE9F012A5F3F4FBF014E
:1025E0006A577F4FC12CD12C7601D9014D915C9156
:1025F0004950510949305105B8F06ACE868197811A
:102600000997099708F05FCE10927B0110927A012A
:102610008FEF9FEFDC018093760190937701A09379
:102620007801B0937901DCC0D90112964D915C918B
:102630001397465151094131510510F112964D91B0
:102640005C911397465051094730510508F040CE30
:10265000CC0CDD1CEE1CFF1C2C5F3F4F26173707F0
:1026600021F620E230E030937B0120937A01C09282
:102670007601D0927701E0927801F0927901B0C0B2
:10268000D701C601880F991FAA1FBB1F6C017D01CE
:102690006894C0F8E1CF848195810997099708F083
:1026A00047CE868197818C974F9708F041CE8085E1
:1026B000918589974D9708F03BCE9F01265F3F4F4C
:1026C000C12CD12C760145E050E02ACE9F0126573F
:1026D0003F4FD9012D913C912C5031092B303105C0
:1026E00008F026CE20E230E030937B0120937A017F
:1026F000C0927601D0927701E0927801F092790150
:1027000088E090E05CCDD90112966D917C91139791
:10271000695071096930710508F00ACECC0CDD1CD6
:10272000EE1CFF1CF5CD84819581825491098E9712
:1027300008F00ACE8F01045C1F4F8DE190E020E08D
:1027400030E01DCD4D915C91485151094231510508
:1027500010F0CB011CCD220F331F0ECDD9011296E4
:102760004D915C911397495151094331510528F519
:10277000D701C601880F991FAA1FBB1F6C017D01DD
:102780006894C0F82C5F3F4F2617370709F0F3CD48
:102790002EE030E030937B0120937A01C0927601E5
:1027A000D0927701E0927801F0927901EFE0F0E0C9
:1027B000F0937301E09372010CCBD90112964D9105
:1027C0005C911397495051094930510508F0DCCD0F
:1027D000CC0CDD1CEE1CFF1CD5CF86E090E0EFCCCE
:1027E00087E090E0ECCCE2E8F1E01382128288EE20
:1027F00093E0A0E0B0E084839583A683B7838AE06A
:1028000091E09183808385EC90E09587848784ECC8
:1028100090E09787868780EC90E0918B808B81ECAD
:1028200090E0938B828B82EC90E0958B848B86EC8E
:1028300090E0978B868B118E128E138E148EEFE1A3
:10284000F2E016821782108611861286138614868D
:10285000158616861786108A118A128A138A148A98
:10286000158AE7E6F2E08BE08183138208958F9268
:102870009F92AF92BF92CF92DF92EF92FF924B0165
:102880005C017A0186E290E00E94F90588E293E219
:102890000E94E70584E991E10E94D505C7010197EF
:1028A000C12CD12C7601C39404C0CC0CDD1CEE1CD1
:1028B000FF1C8A95D2F7C114D104E104F104F1F0B0
:1028C000D701C60188219921AA21BB21892B8A2BF6
:1028D0008B2B39F080E392E00E94E7058AE996E0CD
:1028E00006C080E392E00E94E70580E392E00E9448
:1028F000D505F694E794D794C794DDCF80E392E0B2
:102900000E94E7058091B0008F7D8093B000FF901A
:10291000EF90DF90CF90BF90AF909F908F900895F1
:10292000052E97FB1EF400940E94A71457FD07D0B4
:102930000E94731907FC03D04EF40C94A714509511
:102940004095309521953F4F4F4F5F4F089590959B
:102950008095709561957F4F8F4F9F4F0895EE0F33
:10296000FF1F0590F491E02D09940F93083090F02B
:10297000982F872F762F652F542F432F322F222702
:102980000850F4CF220F331F441F551F661F771FB7
:10299000881F991F0A95B2F70F91089597FB10F8B9
:1029A000169400080F93083098F00850232F342F06
:1029B000452F562F672F782F892F902DF4CF059410
:1029C0009795879577956795579547953795279567
:1029D0000A95AAF70F9108955058BB27AA270E947D
:1029E00004150C9429190E941B1938F00E94221911
:1029F00020F039F49F3F19F426F40C9418190EF4C2
:102A0000E095E7FB0C941219E92F0E943A1958F34C
:102A1000BA17620773078407950720F079F4A6F5C3
:102A20000C945C190EF4E0950B2EBA2FA02D0B011F
:102A3000B90190010C01CA01A0011124FF27591B03
:102A400099F0593F50F4503E68F11A16F040A22F09
:102A5000232F342F4427585FF3CF4695379527957A
:102A6000A795F0405395C9F77EF41F16BA0B620B79
:102A7000730B840BBAF09150A1F0FF0FBB1F661FC0
:102A8000771F881FC2F70EC0BA0F621F731F841F03
:102A900048F4879577956795B795F7959E3F08F029
:102AA000B0CF9395880F08F09927EE0F97958795EB
:102AB00008950E946D150C9429190E94221958F04E
:102AC0000E941B1940F029F45F3F29F00C94121961
:102AD00051110C945D190C9418190E943A1968F35D
:102AE0009923B1F3552391F3951B550BBB27AA27C7
:102AF00062177307840738F09F5F5F4F220F331F01
:102B0000441FAA1FA9F335D00E2E3AF0E0E832D0C8
:102B100091505040E695001CCAF72BD0FE2F29D0CB
:102B2000660F771F881FBB1F261737074807AB079D
:102B3000B0E809F0BB0B802DBF01FF2793585F4F12
:102B40003AF09E3F510578F00C9412190C945D19DF
:102B50005F3FE4F3983ED4F3869577956795B795F4
:102B6000F7959F5FC9F7880F911D9695879597F9FF
:102B70000895E1E0660F771F881FBB1F6217730778
:102B80008407BA0720F0621B730B840BBA0BEE1F8D
:102B900088F7E09508950E94D2156894B1110C94BD
:102BA0005D1908950E94421988F09F5798F0B92F37
:102BB0009927B751B0F0E1F0660F771F881F991F72
:102BC0001AF0BA95C9F714C0B13091F00E945C199F
:102BD000B1E008950C945C19672F782F8827B85FAF
:102BE00039F0B93FCCF3869577956795B395D9F7CA
:102BF0003EF490958095709561957F4F8F4F9F4FD4
:102C00000895CF93DF938230910510F482E090E035
:102C1000E0913C03F0913D0320E030E0C0E0D0E0E3
:102C2000309711F14081518148175907C0F048177A
:102C3000590761F482819381209719F09B838A83DD
:102C40002BC090933D0380933C0326C02115310592
:102C500019F04217530718F49A01BE01DF01EF0182
:102C60000280F381E02DDCCF2115310509F1281B0D
:102C7000390B2430310590F412968D919C91139765
:102C80006115710521F0FB019383828304C0909349
:102C90003D0380933C03FD01329644C0FD01E20FE9
:102CA000F31F81939193225031092D933C933AC0A5
:102CB00020913A0330913B03232B41F420910201F0
:102CC0003091030130933B0320933A03209100019C
:102CD000309101012115310541F42DB73EB74091E6
:102CE000040150910501241B350BE0913A03F0914A
:102CF0003B03E217F307A0F42E1B3F0B28173907FD
:102D000078F0AC014E5F5F4F2417350748F04E0F47
:102D10005F1F50933B0340933A038193919302C00A
:102D2000E0E0F0E0CF01DF91CF9108950F931F9382
:102D3000CF93DF93009709F48CC0FC013297138284
:102D4000128200913C0310913D030115110581F49D
:102D500020813181820F931F20913A0330913B03F0
:102D60002817390779F5F0933B03E0933A0371C0D4
:102D7000D80140E050E0AE17BF0750F412962D91F5
:102D80003C911397AD012115310509F1D901F3CF1C
:102D90009D01DA013383228360817181860F971F41
:102DA0008217930769F4EC0128813981260F371FB8
:102DB0002E5F3F4F318320838A819B81938382835F
:102DC000452B29F4F0933D03E0933C0342C0139656
:102DD000FC93EE931297ED01499159919E01240FB6
:102DE000351FE217F30771F480819181840F951FDD
:102DF000029611969C938E938281938113969C9355
:102E00008E931297E0E0F0E0D80112968D919C919C
:102E10001397009719F0F8018C01F6CF8D919C91D2
:102E200098012E5F3F4F820F931F20913A033091FC
:102E30003B032817390769F4309729F410923D03B2
:102E400010923C0302C01382128210933B03009342
:102E50003A03DF91CF911F910F910895A0E0B0E068
:102E6000E4E3F7E10C94A419EC01009721F4CB0101
:102E70000E940116B8C0FC01E60FF71F9C0122500A
:102E80003109E217F30708F4ACC0D9010D911C9188
:102E9000119706171707B0F00530110508F49FC009
:102EA000C80104978617970708F499C002501109C2
:102EB000061B170B019311936D937C93CF010E9416
:102EC00096168DC05B01A01AB10A4C01800E911EAE
:102ED000A0913C03B0913D0340E050E0E12CF12C87
:102EE000109709F44AC0A815B905D1F56D907C90EA
:102EF0001197630182E0C80ED11CCA14DB0480F173
:102F0000A3014A195B096A0182E0C80ED11C12961E
:102F1000BC9012971396AC91B5E0CB16D10440F05B
:102F2000B282A38351834083D9016D937C930AC0FD
:102F30000E5F1F4FC301800F911FF90191838083A2
:102F4000EB2DFA2FE114F10431F0D7011396FC9325
:102F5000EE93129744C0F0933D03E0933C033FC0CF
:102F60008D919C9111974817590708F4AC017D0188
:102F700012960D90BC91A02DB3CF80913A03909101
:102F80003B0388159905E1F446175707C8F480916B
:102F9000000190910101009741F48DB79EB74091D7
:102FA000040150910501841B950BE817F907C8F43B
:102FB000F0933B03E0933A03F901718360830FC000
:102FC000CB010E9401167C01009759F0A801BE01B7
:102FD0000E94FD17CE010E949616C70104C0CE01C3
:102FE00002C080E090E0CDB7DEB7EEE00C94C019EF
:102FF00081E090E0F8940C94E619FB01DC0102C03A
:1030000001900D9241505040D8F70895FB01DC012A
:1030100001900D920020E1F70895BB27FA01A62F39
:103020006217710581059105330B30FB66F0AA2705
:10303000660F771F881F991FAA1FA21710F0A21BE7
:1030400063953850A9F7A05DAA3308F0A95DA19354
:1030500036F7B111B1931082CA010C942F18DC011C
:10306000FC01672F71917723E1F7329704C07C91BF
:103070006D9370836291AE17BF07C8F308950E94E5
:10308000811808F481E00895E89409C097FB3EF4A4
:1030900090958095709561957F4F8F4F9F4F9923A5
:1030A000A9F0F92F96E9BB279395F6958795779523
:1030B0006795B795F111F8CFFAF4BB0F11F460FFE3
:1030C0001BC06F5F7F4F8F4F9F4F16C0882311F03B
:1030D00096E911C0772321F09EE8872F762F05C04F
:1030E000662371F096E8862F70E060E02AF09A95EA
:1030F000660F771F881FDAF7880F9695879597F9DF
:103100000895990F0008550FAA0BE0E8FEEF161678
:103110001706E807F907C0F012161306E407F507CB
:1031200098F0621B730B840B950B39F40A2661F03F
:10313000232B242B252B21F408950A2609F4A140E2
:10314000A6958FEF811D811D08950E94B8180C94DB
:1031500029190E941B1938F00E94221920F095238A
:1031600011F00C9412190C94181911240C945D1977
:103170000E943A1970F3959FC1F3950F50E0551FC7
:10318000629FF001729FBB27F00DB11D639FAA27BC
:10319000F00DB11DAA1F649F6627B00DA11D661F0B
:1031A000829F2227B00DA11D621F739FB00DA11D2C
:1031B000621F839FA00D611D221F749F3327A00DE6
:1031C000611D231F849F600D211D822F762F6A2F82
:1031D00011249F5750409AF0F1F088234AF0EE0FE7
:1031E000FF1FBB1F661F771F881F91505040A9F714
:1031F0009E3F510580F00C9412190C945D195F3FAD
:10320000E4F3983ED4F3869577956795B795F7954F
:10321000E7959F5FC1F7FE2B880F911D96958795C7
:1032200097F9089597F99F6780E870E060E0089546
:103230009FEF80EC089500240A94161617061806CE
:103240000906089500240A941216130614060506AA
:103250000895092E0394000C11F4882352F0BB0F3B
:1032600040F4BF2B11F460FF04C06F5F7F4F8F4F9E
:103270009F4F089557FD9058440F551F59F05F3FD9
:1032800071F04795880F97FB991F61F09F3F79F088
:1032900087950895121613061406551FF2CF46950A
:1032A000F1DF08C0161617061806991FF1CF86958C
:1032B0007105610508940895E894BB276627772770
:1032C000CB0197F90895DB018F939F930E94951985
:1032D000BF91AF91A29F800D911DA39F900DB29FB2
:1032E000900D11240895A1E21A2EAA1BBB1BFD010B
:1032F0000DC0AA1FBB1FEE1FFF1FA217B307E407D5
:10330000F50720F0A21BB30BE40BF50B661F771F2C
:10331000881F991F1A9469F760957095809590950C
:103320009B01AC01BD01CF0108950E94D719A59F53
:10333000900DB49F900DA49F800D911D11240895B0
:103340002F923F924F925F926F927F928F929F92B5
:10335000AF92BF92CF92DF92EF92FF920F931F93A3
:10336000CF93DF93CDB7DEB7CA1BDB0B0FB6F89454
:10337000DEBF0FBECDBF09942A88398848885F8494
:103380006E847D848C849B84AA84B984C884DF8005
:10339000EE80FD800C811B81AA81B981CE0FD11DE9
:1033A0000FB6F894DEBF0FBECDBFED010895A29F0A
:1033B000B001B39FC001A39F700D811D1124911D09
:1033C000B29F700D811D1124911D0895F894FFCFB7
:1033D00000003E03800000000000F800BE04C100B1
:1033E0009F00B3003F01564D4450565F317C315F22
:1033F000564D4450560D0A00454545404545454506
:1034000045454545454540454540454545454500BB
:103410005454544054545454545454545454405494
:0A342000544054545454540030003A
:00000001FF
